{
  "contractName": "User",
  "abi": [
    {
      "constant": false,
      "inputs": [
        {
          "internalType": "address",
          "name": "uAddress",
          "type": "address"
        },
        {
          "internalType": "uint256",
          "name": "uType",
          "type": "uint256"
        }
      ],
      "name": "addUser",
      "outputs": [
        {
          "internalType": "uint256",
          "name": "",
          "type": "uint256"
        }
      ],
      "payable": false,
      "stateMutability": "nonpayable",
      "type": "function"
    },
    {
      "constant": true,
      "inputs": [],
      "name": "isAdmin",
      "outputs": [
        {
          "internalType": "bool",
          "name": "",
          "type": "bool"
        }
      ],
      "payable": false,
      "stateMutability": "view",
      "type": "function"
    },
    {
      "constant": true,
      "inputs": [],
      "name": "isFactory",
      "outputs": [
        {
          "internalType": "bool",
          "name": "",
          "type": "bool"
        }
      ],
      "payable": false,
      "stateMutability": "view",
      "type": "function"
    },
    {
      "constant": true,
      "inputs": [],
      "name": "isSupplier",
      "outputs": [
        {
          "internalType": "bool",
          "name": "",
          "type": "bool"
        }
      ],
      "payable": false,
      "stateMutability": "view",
      "type": "function"
    },
    {
      "constant": true,
      "inputs": [],
      "name": "isDealer",
      "outputs": [
        {
          "internalType": "bool",
          "name": "",
          "type": "bool"
        }
      ],
      "payable": false,
      "stateMutability": "view",
      "type": "function"
    }
  ],
  "bytecode": "0x608060405234801561001057600080fd5b50610403806100206000396000f3fe608060405234801561001057600080fd5b50600436106100575760003560e01c806301a74a081461005c5780632565a86e1461007e5780638c59afc6146100a0578063b6db75a0146100c2578063d3017193146100e4575b600080fd5b610064610146565b604051808215151515815260200191505060405180910390f35b610086610192565b604051808215151515815260200191505060405180910390f35b6100a86101de565b604051808215151515815260200191505060405180910390f35b6100ca61022a565b604051808215151515815260200191505060405180910390f35b610130600480360360408110156100fa57600080fd5b81019080803573ffffffffffffffffffffffffffffffffffffffff16906020019092919080359060200190929190505050610276565b6040518082815260200191505060405180910390f35b600060026000803373ffffffffffffffffffffffffffffffffffffffff1673ffffffffffffffffffffffffffffffffffffffff1681526020019081526020016000206000015414905090565b600060036000803373ffffffffffffffffffffffffffffffffffffffff1673ffffffffffffffffffffffffffffffffffffffff1681526020019081526020016000206000015414905090565b600060046000803373ffffffffffffffffffffffffffffffffffffffff1673ffffffffffffffffffffffffffffffffffffffff1681526020019081526020016000206000015414905090565b600060016000803373ffffffffffffffffffffffffffffffffffffffff1673ffffffffffffffffffffffffffffffffffffffff1681526020019081526020016000206000015414905090565b600080600090505b60018054905081101561030d578373ffffffffffffffffffffffffffffffffffffffff16600182815481106102af57fe5b9060005260206000200160009054906101000a900473ffffffffffffffffffffffffffffffffffffffff1673ffffffffffffffffffffffffffffffffffffffff1614156103005760009150506103c8565b808060010191505061027e565b5060008060008573ffffffffffffffffffffffffffffffffffffffff1673ffffffffffffffffffffffffffffffffffffffff168152602001908152602001600020905082816000018190555060018490806001815401808255809150509060018203906000526020600020016000909192909190916101000a81548173ffffffffffffffffffffffffffffffffffffffff021916908373ffffffffffffffffffffffffffffffffffffffff1602179055505080600001549150505b9291505056fea265627a7a72315820a564a1f2205f486d22fd887ce457888f05555abd97fee9c0e97783bc55fec48a64736f6c63430005100032",
  "source": "pragma solidity ^0.5.1;\n\ncontract User{\n\n    struct userDetails{\n        uint userType;\n    }\n    mapping(address => userDetails) users;\n    address[] userAddresses;\n\n    function addUser(address uAddress, uint uType) public returns (uint)\n    {\n        for(uint i=0;i<userAddresses.length; i++){\n            if(userAddresses[i] == uAddress)\n                return 0;\n        }\n        userDetails storage details = users[uAddress];\n\n        details.userType = uType;\n        userAddresses.push(uAddress);\n\n        return details.userType;\n    }\n\n    function isAdmin() public view returns (bool) {\n        return users[msg.sender].userType == 1;\n    }\n    function isFactory() public view returns (bool) {\n        return users[msg.sender].userType == 2;\n    }\n    function isSupplier() public view returns (bool) {\n        return users[msg.sender].userType == 3;\n    }\n    function isDealer() public view returns (bool) {\n        return users[msg.sender].userType == 4;\n    }\n}",
  "sourcePath": "D:\\CODE\\eth\\reacmchain\\blockchain\\contracts\\User.sol",
  "compiler": {
    "name": "solc",
    "version": "0.5.16+commit.9c3226ce.Emscripten.clang"
  },
  "schemaVersion": "3.1.0",
  "updatedAt": "2020-05-12T08:13:48.412Z",
  "networkType": "ethereum",
  "devdoc": {
    "methods": {}
  },
  "userdoc": {
    "methods": {}
  }
}